:02000000672C6B
:0400060000000800EE
:10000A00103083120313FD00FD0B092800000800BD
:10001A00083083120313FC002330FD00FD0B132864
:06002A00FC0B1328080086
:10003000A03083120313F0000F30F100F201F3013E
:020040000800B6
:1000420083120313EB03EB036B08003C03182E2807
:10005200EB03000000000000252800000000000063
:0600620000000000080090
:1000680083120313F801F9011030FC00710DF80D2B
:10007800F90D7408F8027508031C750FF9020318C6
:100088004C287408F80775080318750FF90703104A
:0A009800F00DF10DFC0B3A280800F2
:1000A200831203132230FC00F801F901FA01FB016B
:1000B200FC03031987280310FB0CFA0CF90CF80C4B
:1000C200F30CF20CF10CF00C031C5928FC0303197D
:1000D20079287408F80775080318750FF907760868
:1000E2000318760FFA0777080318770FFB075D28C6
:1000F2007408F80775080318750FF90776080318CE
:0E010200760FFA0777080318770FFB0708003F
:1001100083120313FB01FA01F901F801A001730D29
:10012000F80D7408F8027508031C750FF9027608BB
:10013000031C760FFA027708031C770FFB020001FD
:10014000031C0130A002F30D0730FC00730DF80D05
:10015000F90DFA0DFB0DA00D7408731CC128F802EF
:100160007508031C750FF9027608031C760FFA0256
:100170007708031C770FFB020001031C0130A0026B
:10018000D228F80775080318750FF90776080318C1
:10019000760FFA0777080318770FFB07000103189B
:1001A0000130A007F30DFC0BA628720DF80DF90D18
:1001B000FA0DFB0DA00D7408731CF028F8027508E9
:1001C000031C750FF9027608031C760FFA027708F4
:1001D000031C770FFB020001031C0130A002012960
:1001E000F80775080318750FF90776080318760FD6
:1001F000FA0777080318770FFB070001031801308F
:10020000A007F20D0730FC00720DF80DF90DFA0D84
:10021000FB0DA00D7408721C1F29F8027508031C41
:10022000750FF9027608031C760FFA027708031C93
:10023000770FFB020001031C0130A0023029F807F0
:1002400075080318750FF90776080318760FFA0773
:1002500077080318770FFB07000103180130A00788
:10026000F20DFC0B0429710DF80DF90DFA0DFB0DC3
:10027000A00D7408721C4E29F8027508031C750F36
:10028000F9027608031C760FFA027708031C770F31
:10029000FB020001031C0130A0025F29F80775086A
:1002A0000318750FF90776080318760FFA07770811
:1002B0000318770FFB07000103180130A007F10DA9
:1002C0000730FC00710DF80DF90DFA0DFB0DA00DB6
:1002D0007408711C7D29F8027508031C750FF9025A
:1002E0007608031C760FFA027708031C770FFB02CF
:1002F0000001031C0130A0028E29F80775080318BD
:10030000750FF90776080318760FFA0777080318B0
:10031000770FFB07000103180130A007F10DFC0B5C
:100320006229700DF80DF90DFA0DFB0DA00D740882
:10033000711CAC29F8027508031C750FF9027608C8
:10034000031C760FFA027708031C770FFB020001EB
:10035000031C0130A002BD29F80775080318750FAA
:10036000F90776080318760FFA0777080318770F4E
:10037000FB07000103180130A007F00D0730FC0057
:10038000700DF80DF90DFA0DFB0DA00D7408701C21
:10039000DB29F8027508031C750FF9027608031CA7
:1003A000760FFA027708031C770FFB020001031C8B
:1003B0000130A002EC29F80775080318750FF9073A
:1003C00076080318760FFA0777080318770FFB07EC
:1003D000000103180130A007F00DFC0BC0297018B4
:1003E000FF297408F80775080318750FF9077608D0
:1003F0000318760FFA0777080318770FFB07080032
:1004000083120313EB1B062A8611072A86156B1B22
:100410000B2A06110C2A0615EB1A102A8610112A2F
:1004200086146B1A152A0610162A061457181A2A4B
:1004300006161B2A0612861603208612EB19222A9C
:100440008611232A86156B19272A0611282A0615D4
:10045000EB182C2A86102D2A86146B18312A0610C8
:10046000322A06145718362A0616372A0612861616
:1004700003208612571C3E2A0D203F2A0520080023
:100480008312031357105F08EB0000225714080073
:100490001820E830F4000330F500F601F701512090
:1004A0007008E7007108E8007208E9007308EA00C4
:1004B0005F08F4006008F500F601F7018820700875
:1004C000E7007108E8007208E9007308EA007008A4
:1004D000F5007108F6007208F7007308F800F80CD0
:1004E000F70CF60CF50CF813F80CF70CF60CF50CF1
:1004F000F8137508F0007608F1007708F200780824
:10050000F300F30CF20CF10CF00CF3137008E300A1
:100510007108E40018206108F4006208F500F60193
:10052000F70151206308F9006408FA00FB01FC019F
:100530000330F8007908F4007A08F5007B08F6002B
:100540007C08F70078080319AC2AF40DF50DF60DB8
:10055000F70D7410FF3EA32A88207008E700710889
:10056000E8007208E9007308EA000A30F40000307D
:10057000F5006308F0006408F10034207008E3001F
:100580007108E40000307102031DC82A03307002B4
:100590000318CB2A182B580884006A08003C031D56
:1005A000DB2A6908003C031DDB2A6808003C031DA8
:1005B000DB2A6708003C0318162B5A0880046408DD
:1005C0000319F22AE501E60100306602031DEA2A5A
:1005D000640865020318F22AEB012120E50A0319D9
:1005E000E60AE42A6308EB00212059088005640824
:1005F00003190A2BE501E60100306602031D022BF8
:100600006408650203180A2BEB012120E50A03198F
:10061000E60AFC2A6308EB0021200130E702031CF4
:10062000E802031CE902031CEA02CD2A59088005EE
:020630000800C0
:0E0632008312031356088A0055088200080040
:10064000B83083120313DF000130E000F430E10022
:100650000130E20048220230FB008630FC00993075
:10066000FD00FD0B312BFC0B312BFB0B312B08005C
:10067000883083120313DF000130E000F430E10022
:100680000130E20048220230FB008630FC00993045
:10069000FD00FD0B492BFC0B492BFB0B492B0800E4
:1006A000053083120313DF000130E000F430E10075
:1006B0000130E20048220230FB008630FC00993015
:1006C000FD00FD0B612BFC0B612BFB0B612B08006C
:1006D000493083120313DF000130E000F430E10001
:1006E0000130E20048220230FB008630FC009930E5
:1006F000FD00FD0B792BFC0B792BFB0B792B0800F4
:10070000253083120313DF000130E000F430E100F4
:100710000130E20048220230FB008630FC009930B4
:10072000FD00FD0B912BFC0B912BFB0B912B08007B
:1007300019238A110A128000840AD50A0319D60ADD
:08074000F003031D982B0800D3
:10074800B62B803083120313DB00C92BC030DB00CB
:10075800C92B9430DB00C92BD430DB00C92B803087
:10076800DB00C92B831203135B08013A0319A52B7D
:100778005B08023A0319AA2B5B08033A0319AD2B4D
:100788005B08043A0319B02BB32B5C03F0005B0839
:10079800F0077008DB007008EB0000225710DE013C
:1007A8005E085D07840000080319E22B5E085D07F8
:1007B80084000008DF004022DE0AD42B571408000A
:1007C8008316031386120612061086100611861168
:1007D80083128612061286110611861006100D2045
:1007E8000D200D20861406148616032086120D206F
:1007F8008616032086120D208616032086120D20E9
:1008080006108616032086120D20861603208612EF
:10081800861086158616032086120D20861106146A
:1008280086160320861206108616032086120D20CF
:1008380086160320861206148616032086120D20BB
:1008480006108616032086128615061586140614C9
:0C0858008616032086120D20571408009D
:100864005D3083120313DF000130E000F430E10057
:100874000130E20048220230FB008630FC0099304F
:10088400FD00FD0B432CFC0B432CFB0B432C0800FD
:10089400831203135B08D8005C08F1000130F000F8
:1008A40071080319592CF00D7010FF3E532C700879
:1008B400DA00F0097008D90080305B078400700802
:0A08C4008005841370088005080009
:1008CE0028258316031788018901860103138801E1
:1008DE0008308312DB000330DC004A24E4230130AD
:1008EE00EB0000220130DB000130DC002B30DD009C
:1008FE00A4230330FB008A30FC005530FD00FD0BB5
:10090E00862CFC0B862CFB0B862C00000000502343
:10091E008023682350230130EB0000220130DB00DE
:10092E000130DC003730DD00A4230330FB008A30B9
:10093E00FC005530FD00FD0BA22CFC0BA22CFB0B7A
:10094E00A22C000000006823322438230130EB0073
:10095E0000220130DB000130DC004A30DD00A42330
:10096E000230DB000130DC004130DD00A423033017
:10097E00FB008A30FC005530FD00FD0BC42CFC0B37
:10098E00C42CFB0BC42C000000003823202338237A
:10099E003224682350230130EB0000220130DB00AB
:1009AE000130DC002130DD00A4230330FB008A304F
:1009BE00FC005530FD00FD0BE22CFC0BE22CFB0B7A
:1009CE00E22C00000000802338235023762CEE2CDE
:100A500021308400343083120313F000F430D500C9
:080A60000430D60098230800C1
:1009E80052346534203453346F346C3420344434F6
:0409F8006F34003424
:1009FC0044346F3420345234653420344D346934EB
:080A0C00203444346F3400343F
:100A14004D346934203446346134203453346F34D3
:040A24006C340034FA
:100A28004634613420344D346934203444346F34CE
:020A3800003488
:100A3A0053346F346C3420344C346134203453349E
:060A4A006F346C3400342F
:04400E00D2230007B2
:00000001FF
